{
  "_format": "hh-sol-artifact-1",
  "contractName": "ControlAccess",
  "sourceName": "contracts/ControlAccess.sol",
  "abi": [
    {
      "inputs": [
        {
          "internalType": "address",
          "name": "_hardwareAddress",
          "type": "address"
        },
        {
          "internalType": "address",
          "name": "_ownerAddress",
          "type": "address"
        }
      ],
      "stateMutability": "nonpayable",
      "type": "constructor"
    },
    {
      "inputs": [
        {
          "internalType": "address",
          "name": "_newCard",
          "type": "address"
        }
      ],
      "name": "addCard",
      "outputs": [],
      "stateMutability": "nonpayable",
      "type": "function"
    },
    {
      "inputs": [
        {
          "internalType": "address",
          "name": "_card",
          "type": "address"
        }
      ],
      "name": "enter",
      "outputs": [],
      "stateMutability": "nonpayable",
      "type": "function"
    },
    {
      "inputs": [
        {
          "internalType": "address",
          "name": "_card",
          "type": "address"
        }
      ],
      "name": "getRegisters",
      "outputs": [
        {
          "internalType": "uint256[]",
          "name": "",
          "type": "uint256[]"
        }
      ],
      "stateMutability": "view",
      "type": "function"
    },
    {
      "inputs": [],
      "name": "hardwareAddress",
      "outputs": [
        {
          "internalType": "address",
          "name": "",
          "type": "address"
        }
      ],
      "stateMutability": "view",
      "type": "function"
    },
    {
      "inputs": [
        {
          "internalType": "address",
          "name": "",
          "type": "address"
        }
      ],
      "name": "listOfUsers",
      "outputs": [
        {
          "internalType": "enum ControlAccess.Status",
          "name": "status",
          "type": "uint8"
        },
        {
          "internalType": "address",
          "name": "owner",
          "type": "address"
        },
        {
          "internalType": "uint256",
          "name": "balance",
          "type": "uint256"
        }
      ],
      "stateMutability": "view",
      "type": "function"
    },
    {
      "inputs": [],
      "name": "ownerAddress",
      "outputs": [
        {
          "internalType": "address",
          "name": "",
          "type": "address"
        }
      ],
      "stateMutability": "view",
      "type": "function"
    },
    {
      "inputs": [
        {
          "internalType": "address",
          "name": "_card",
          "type": "address"
        }
      ],
      "name": "removeCard",
      "outputs": [],
      "stateMutability": "nonpayable",
      "type": "function"
    },
    {
      "inputs": [
        {
          "internalType": "uint256",
          "name": "_balance",
          "type": "uint256"
        }
      ],
      "name": "setBalance",
      "outputs": [],
      "stateMutability": "nonpayable",
      "type": "function"
    }
  ],
  "bytecode": "0x60806040523480156200001157600080fd5b50604051620018133803806200181383398181016040528101906200003791906200012b565b81600160006101000a81548173ffffffffffffffffffffffffffffffffffffffff021916908373ffffffffffffffffffffffffffffffffffffffff16021790555080600260006101000a81548173ffffffffffffffffffffffffffffffffffffffff021916908373ffffffffffffffffffffffffffffffffffffffff160217905550505062000172565b600080fd5b600073ffffffffffffffffffffffffffffffffffffffff82169050919050565b6000620000f382620000c6565b9050919050565b6200010581620000e6565b81146200011157600080fd5b50565b6000815190506200012581620000fa565b92915050565b60008060408385031215620001455762000144620000c1565b5b6000620001558582860162000114565b9250506020620001688582860162000114565b9150509250929050565b61169180620001826000396000f3fe608060405234801561001057600080fd5b50600436106100885760003560e01c80634acc37c21161005b5780634acc37c2146101155780638f84aa0914610145578063d014c01f14610163578063fb1669ca1461017f57610088565b80631ac6f49f1461008d5780633bdf8369146100bf5780633dc50952146100dd5780634149177b146100f9575b600080fd5b6100a760048036038101906100a291906111e0565b61019b565b6040516100b6939291906112ac565b60405180910390f35b6100c76101f2565b6040516100d491906112e3565b60405180910390f35b6100f760048036038101906100f291906111e0565b610218565b005b610113600480360381019061010e91906111e0565b6105ea565b005b61012f600480360381019061012a91906111e0565b610984565b60405161013c91906113bc565b60405180910390f35b61014d610a1d565b60405161015a91906112e3565b60405180910390f35b61017d600480360381019061017891906111e0565b610a43565b005b6101996004803603810190610194919061140a565b610d00565b005b60006020528060005260406000206000915090508060000160009054906101000a900460ff16908060000160019054906101000a900473ffffffffffffffffffffffffffffffffffffffff16908060010154905083565b600160009054906101000a900473ffffffffffffffffffffffffffffffffffffffff1681565b600260009054906101000a900473ffffffffffffffffffffffffffffffffffffffff1673ffffffffffffffffffffffffffffffffffffffff163373ffffffffffffffffffffffffffffffffffffffff16146102a8576040517f08c379a000000000000000000000000000000000000000000000000000000000815260040161029f90611494565b60405180910390fd5b600060028111156102bc576102bb61120d565b5b6000808373ffffffffffffffffffffffffffffffffffffffff1673ffffffffffffffffffffffffffffffffffffffff16815260200190815260200160002060000160009054906101000a900460ff16600281111561031d5761031c61120d565b5b1461035d576040517f08c379a000000000000000000000000000000000000000000000000000000000815260040161035490611500565b60405180910390fd5b60008060008373ffffffffffffffffffffffffffffffffffffffff1673ffffffffffffffffffffffffffffffffffffffff1681526020019081526020016000206040518060800160405290816000820160009054906101000a900460ff1660028111156103cd576103cc61120d565b5b60028111156103df576103de61120d565b5b81526020016000820160019054906101000a900473ffffffffffffffffffffffffffffffffffffffff1673ffffffffffffffffffffffffffffffffffffffff1673ffffffffffffffffffffffffffffffffffffffff168152602001600182015481526020016002820180548060200260200160405190810160405280929190818152602001828054801561049257602002820191906000526020600020905b81548152602001906001019080831161047e575b50505050508152505090506001816000019060028111156104b6576104b561120d565b5b908160028111156104ca576104c961120d565b5b8152505081816020019073ffffffffffffffffffffffffffffffffffffffff16908173ffffffffffffffffffffffffffffffffffffffff1681525050806000808473ffffffffffffffffffffffffffffffffffffffff1673ffffffffffffffffffffffffffffffffffffffff16815260200190815260200160002060008201518160000160006101000a81548160ff021916908360028111156105705761056f61120d565b5b021790555060208201518160000160016101000a81548173ffffffffffffffffffffffffffffffffffffffff021916908373ffffffffffffffffffffffffffffffffffffffff1602179055506040820151816001015560608201518160020190805190602001906105e29291906110c1565b509050505050565b600260009054906101000a900473ffffffffffffffffffffffffffffffffffffffff1673ffffffffffffffffffffffffffffffffffffffff163373ffffffffffffffffffffffffffffffffffffffff161461067a576040517f08c379a000000000000000000000000000000000000000000000000000000000815260040161067190611494565b60405180910390fd5b6001600281111561068e5761068d61120d565b5b6000808373ffffffffffffffffffffffffffffffffffffffff1673ffffffffffffffffffffffffffffffffffffffff16815260200190815260200160002060000160009054906101000a900460ff1660028111156106ef576106ee61120d565b5b1461072f576040517f08c379a00000000000000000000000000000000000000000000000000000000081526004016107269061156c565b60405180910390fd5b60008060008373ffffffffffffffffffffffffffffffffffffffff1673ffffffffffffffffffffffffffffffffffffffff1681526020019081526020016000206040518060800160405290816000820160009054906101000a900460ff16600281111561079f5761079e61120d565b5b60028111156107b1576107b061120d565b5b81526020016000820160019054906101000a900473ffffffffffffffffffffffffffffffffffffffff1673ffffffffffffffffffffffffffffffffffffffff1673ffffffffffffffffffffffffffffffffffffffff168152602001600182015481526020016002820180548060200260200160405190810160405280929190818152602001828054801561086457602002820191906000526020600020905b815481526020019060010190808311610850575b50505050508152505090506002816000019060028111156108885761088761120d565b5b9081600281111561089c5761089b61120d565b5b81525050806000808473ffffffffffffffffffffffffffffffffffffffff1673ffffffffffffffffffffffffffffffffffffffff16815260200190815260200160002060008201518160000160006101000a81548160ff0219169083600281111561090a5761090961120d565b5b021790555060208201518160000160016101000a81548173ffffffffffffffffffffffffffffffffffffffff021916908373ffffffffffffffffffffffffffffffffffffffff16021790555060408201518160010155606082015181600201908051906020019061097c9291906110c1565b509050505050565b60606000808373ffffffffffffffffffffffffffffffffffffffff1673ffffffffffffffffffffffffffffffffffffffff168152602001908152602001600020600201805480602002602001604051908101604052809291908181526020018280548015610a1157602002820191906000526020600020905b8154815260200190600101908083116109fd575b50505050509050919050565b600260009054906101000a900473ffffffffffffffffffffffffffffffffffffffff1681565b600160009054906101000a900473ffffffffffffffffffffffffffffffffffffffff1673ffffffffffffffffffffffffffffffffffffffff163373ffffffffffffffffffffffffffffffffffffffff1614610ad3576040517f08c379a0000000000000000000000000000000000000000000000000000000008152600401610aca906115d8565b60405180910390fd5b60016002811115610ae757610ae661120d565b5b6000808373ffffffffffffffffffffffffffffffffffffffff1673ffffffffffffffffffffffffffffffffffffffff16815260200190815260200160002060000160009054906101000a900460ff166002811115610b4857610b4761120d565b5b14610b88576040517f08c379a0000000000000000000000000000000000000000000000000000000008152600401610b7f9061156c565b60405180910390fd5b60008060008373ffffffffffffffffffffffffffffffffffffffff1673ffffffffffffffffffffffffffffffffffffffff168152602001908152602001600020905080600201429080600181540180825580915050600190039060005260206000200160009091909190915055806000808473ffffffffffffffffffffffffffffffffffffffff1673ffffffffffffffffffffffffffffffffffffffff1681526020019081526020016000206000820160009054906101000a900460ff168160000160006101000a81548160ff02191690836002811115610c6c57610c6b61120d565b5b02179055506000820160019054906101000a900473ffffffffffffffffffffffffffffffffffffffff168160000160016101000a81548173ffffffffffffffffffffffffffffffffffffffff021916908373ffffffffffffffffffffffffffffffffffffffff160217905550600182015481600101556002820181600201908054610cf892919061110e565b509050505050565b3373ffffffffffffffffffffffffffffffffffffffff166000803373ffffffffffffffffffffffffffffffffffffffff1673ffffffffffffffffffffffffffffffffffffffff16815260200190815260200160002060000160019054906101000a900473ffffffffffffffffffffffffffffffffffffffff1673ffffffffffffffffffffffffffffffffffffffff1614610dcf576040517f08c379a0000000000000000000000000000000000000000000000000000000008152600401610dc690611494565b60405180910390fd5b60016002811115610de357610de261120d565b5b6000803373ffffffffffffffffffffffffffffffffffffffff1673ffffffffffffffffffffffffffffffffffffffff16815260200190815260200160002060000160009054906101000a900460ff166002811115610e4457610e4361120d565b5b14610e84576040517f08c379a0000000000000000000000000000000000000000000000000000000008152600401610e7b9061156c565b60405180910390fd5b60008060003373ffffffffffffffffffffffffffffffffffffffff1673ffffffffffffffffffffffffffffffffffffffff1681526020019081526020016000206040518060800160405290816000820160009054906101000a900460ff166002811115610ef457610ef361120d565b5b6002811115610f0657610f0561120d565b5b81526020016000820160019054906101000a900473ffffffffffffffffffffffffffffffffffffffff1673ffffffffffffffffffffffffffffffffffffffff1673ffffffffffffffffffffffffffffffffffffffff1681526020016001820154815260200160028201805480602002602001604051908101604052809291908181526020018280548015610fb957602002820191906000526020600020905b815481526020019060010190808311610fa5575b50505050508152505090508181604001818151610fd69190611627565b91508181525050806000803373ffffffffffffffffffffffffffffffffffffffff1673ffffffffffffffffffffffffffffffffffffffff16815260200190815260200160002060008201518160000160006101000a81548160ff021916908360028111156110475761104661120d565b5b021790555060208201518160000160016101000a81548173ffffffffffffffffffffffffffffffffffffffff021916908373ffffffffffffffffffffffffffffffffffffffff1602179055506040820151816001015560608201518160020190805190602001906110b99291906110c1565b509050505050565b8280548282559060005260206000209081019282156110fd579160200282015b828111156110fc5782518255916020019190600101906110e1565b5b50905061110a9190611160565b5090565b82805482825590600052602060002090810192821561114f5760005260206000209182015b8281111561114e578254825591600101919060010190611133565b5b50905061115c9190611160565b5090565b5b80821115611179576000816000905550600101611161565b5090565b600080fd5b600073ffffffffffffffffffffffffffffffffffffffff82169050919050565b60006111ad82611182565b9050919050565b6111bd816111a2565b81146111c857600080fd5b50565b6000813590506111da816111b4565b92915050565b6000602082840312156111f6576111f561117d565b5b6000611204848285016111cb565b91505092915050565b7f4e487b7100000000000000000000000000000000000000000000000000000000600052602160045260246000fd5b6003811061124d5761124c61120d565b5b50565b600081905061125e8261123c565b919050565b600061126e82611250565b9050919050565b61127e81611263565b82525050565b61128d816111a2565b82525050565b6000819050919050565b6112a681611293565b82525050565b60006060820190506112c16000830186611275565b6112ce6020830185611284565b6112db604083018461129d565b949350505050565b60006020820190506112f86000830184611284565b92915050565b600081519050919050565b600082825260208201905092915050565b6000819050602082019050919050565b61133381611293565b82525050565b6000611345838361132a565b60208301905092915050565b6000602082019050919050565b6000611369826112fe565b6113738185611309565b935061137e8361131a565b8060005b838110156113af5781516113968882611339565b97506113a183611351565b925050600181019050611382565b5085935050505092915050565b600060208201905081810360008301526113d6818461135e565b905092915050565b6113e781611293565b81146113f257600080fd5b50565b600081359050611404816113de565b92915050565b6000602082840312156114205761141f61117d565b5b600061142e848285016113f5565b91505092915050565b600082825260208201905092915050565b7f596f75277265206e6f7420746865206f776e6572000000000000000000000000600082015250565b600061147e601483611437565b915061148982611448565b602082019050919050565b600060208201905081810360008301526114ad81611471565b9050919050565b7f5468697320636172642077617320616c72656164792061637469766174656400600082015250565b60006114ea601f83611437565b91506114f5826114b4565b602082019050919050565b60006020820190508181036000830152611519816114dd565b9050919050565b7f546869732063617264206973206e6f7420616374697661746564000000000000600082015250565b6000611556601a83611437565b915061156182611520565b602082019050919050565b6000602082019050818103600083015261158581611549565b9050919050565b7f596f75277265206e6f7420746865206861726477617265000000000000000000600082015250565b60006115c2601783611437565b91506115cd8261158c565b602082019050919050565b600060208201905081810360008301526115f1816115b5565b9050919050565b7f4e487b7100000000000000000000000000000000000000000000000000000000600052601160045260246000fd5b600061163282611293565b915061163d83611293565b9250828201905080821115611655576116546115f8565b5b9291505056fea26469706673582212202d3cdbed23ec9dd11a64ed8ec46bcf8999db5754d40a87965cec162a68ad7db064736f6c63430008110033",
  "linkReferences": {},
  "deployedLinkReferences": {}
}